{
  "transactions": [
    {
      "hash": "0x6048b272ac444f5c1b39c4fcea794d9fbbc903a6a2c8d9af9ba755817f31a431",
      "transactionType": "CALL",
      "contractName": null,
      "contractAddress": "0x779877a7b0d9e8603169ddbd7836e478b4624789",
      "function": "transferAndCall(address,uint256,bytes)",
      "arguments": [
        "0x9DdfaCa8183c41ad55329BdeeD9F6A8d53168B1B",
        "3000000000000000000",
        "0x7a1b16a0ae7be99eeb88ec436961c242597b077dae562486286ed9978f1fea72"
      ],
      "transaction": {
        "from": "0xa6f08aba1d69b1fc9092e8bc348da5744b01e955",
        "to": "0x779877a7b0d9e8603169ddbd7836e478b4624789",
        "gas": "0x14cbb",
        "value": "0x0",
        "input": "0x4000aea00000000000000000000000009ddfaca8183c41ad55329bdeed9f6a8d53168b1b00000000000000000000000000000000000000000000000029a2241af62c0000000000000000000000000000000000000000000000000000000000000000006000000000000000000000000000000000000000000000000000000000000000207a1b16a0ae7be99eeb88ec436961c242597b077dae562486286ed9978f1fea72",
        "nonce": "0xf",
        "chainId": "0xaa36a7"
      },
      "additionalContracts": [],
      "isFixedGasLimit": false
    }
  ],
  "receipts": [
    {
      "status": "0x1",
      "cumulativeGasUsed": "0x33396d6",
      "logs": [
        {
          "address": "0x779877a7b0d9e8603169ddbd7836e478b4624789",
          "topics": [
            "0xddf252ad1be2c89b69c2b068fc378daa952ba7f163c4a11628f55a4df523b3ef",
            "0x000000000000000000000000a6f08aba1d69b1fc9092e8bc348da5744b01e955",
            "0x0000000000000000000000009ddfaca8183c41ad55329bdeed9f6a8d53168b1b"
          ],
          "data": "0x00000000000000000000000000000000000000000000000029a2241af62c0000",
          "blockHash": "0xbc392e168f1ebde0b2cdadb37885aba52c964678d18dbd8e4b6666fd3a4342e2",
          "blockNumber": "0x93648d",
          "blockTimestamp": "0x691d4384",
          "transactionHash": "0x6048b272ac444f5c1b39c4fcea794d9fbbc903a6a2c8d9af9ba755817f31a431",
          "transactionIndex": "0x84",
          "logIndex": "0x42d",
          "removed": false
        },
        {
          "address": "0x779877a7b0d9e8603169ddbd7836e478b4624789",
          "topics": [
            "0xe19260aff97b920c7df27010903aeb9c8d2be5d310a2c67824cf3f15396e4c16",
            "0x000000000000000000000000a6f08aba1d69b1fc9092e8bc348da5744b01e955",
            "0x0000000000000000000000009ddfaca8183c41ad55329bdeed9f6a8d53168b1b"
          ],
          "data": "0x00000000000000000000000000000000000000000000000029a2241af62c0000000000000000000000000000000000000000000000000000000000000000004000000000000000000000000000000000000000000000000000000000000000207a1b16a0ae7be99eeb88ec436961c242597b077dae562486286ed9978f1fea72",
          "blockHash": "0xbc392e168f1ebde0b2cdadb37885aba52c964678d18dbd8e4b6666fd3a4342e2",
          "blockNumber": "0x93648d",
          "blockTimestamp": "0x691d4384",
          "transactionHash": "0x6048b272ac444f5c1b39c4fcea794d9fbbc903a6a2c8d9af9ba755817f31a431",
          "transactionIndex": "0x84",
          "logIndex": "0x42e",
          "removed": false
        },
        {
          "address": "0x9ddfaca8183c41ad55329bdeed9f6a8d53168b1b",
          "topics": [
            "0x1ced9348ff549fceab2ac57cd3a9de38edaaab274b725ee82c23e8fc8c4eec7a",
            "0x7a1b16a0ae7be99eeb88ec436961c242597b077dae562486286ed9978f1fea72"
          ],
          "data": "0x00000000000000000000000000000000000000000000000029a2241af62c000000000000000000000000000000000000000000000000000053444835ec580000",
          "blockHash": "0xbc392e168f1ebde0b2cdadb37885aba52c964678d18dbd8e4b6666fd3a4342e2",
          "blockNumber": "0x93648d",
          "blockTimestamp": "0x691d4384",
          "transactionHash": "0x6048b272ac444f5c1b39c4fcea794d9fbbc903a6a2c8d9af9ba755817f31a431",
          "transactionIndex": "0x84",
          "logIndex": "0x42f",
          "removed": false
        }
      ],
      "logsBloom": "0x00000004000000000000000000000000000000000020000000000000020000000000000000000000000000000000000000000000000000000000000000000000000000000000000000000008000000000000000000080000000020000020000008000000000000000000000000000000000000000000000000000010000040000000000000000000000200010000800000000020000000000000000000000000000000000000000000000000010000000000000000000000000004000000000000000002000000000000000000000000000000000000000100000000000000000010000000008000800004100000000000008000000000000000000000000000",
      "type": "0x2",
      "transactionHash": "0x6048b272ac444f5c1b39c4fcea794d9fbbc903a6a2c8d9af9ba755817f31a431",
      "transactionIndex": "0x84",
      "blockHash": "0xbc392e168f1ebde0b2cdadb37885aba52c964678d18dbd8e4b6666fd3a4342e2",
      "blockNumber": "0x93648d",
      "gasUsed": "0xf0e5",
      "effectiveGasPrice": "0xf4240",
      "from": "0xa6f08aba1d69b1fc9092e8bc348da5744b01e955",
      "to": "0x779877a7b0d9e8603169ddbd7836e478b4624789",
      "contractAddress": null
    }
  ],
  "libraries": [],
  "pending": [],
  "returns": {},
  "timestamp": 1763525511794,
  "chain": 11155111,
  "commit": null
}